{
  "_format": "hh-sol-artifact-1",
  "contractName": "BoostMeUp",
  "sourceName": "contracts/BoostMeUp.sol",
  "abi": [
    {
      "inputs": [
        {
          "internalType": "uint256",
          "name": "_projectTax",
          "type": "uint256"
        }
      ],
      "stateMutability": "nonpayable",
      "type": "constructor"
    },
    {
      "anonymous": false,
      "inputs": [
        {
          "indexed": false,
          "internalType": "uint256",
          "name": "id",
          "type": "uint256"
        },
        {
          "indexed": false,
          "internalType": "string",
          "name": "actionType",
          "type": "string"
        },
        {
          "indexed": true,
          "internalType": "address",
          "name": "executor",
          "type": "address"
        },
        {
          "indexed": false,
          "internalType": "uint256",
          "name": "timestamp",
          "type": "uint256"
        }
      ],
      "name": "Action",
      "type": "event"
    },
    {
      "inputs": [
        {
          "internalType": "uint256",
          "name": "_id",
          "type": "uint256"
        }
      ],
      "name": "backProject",
      "outputs": [
        {
          "internalType": "bool",
          "name": "",
          "type": "bool"
        }
      ],
      "stateMutability": "payable",
      "type": "function"
    },
    {
      "inputs": [
        {
          "internalType": "uint256",
          "name": "",
          "type": "uint256"
        },
        {
          "internalType": "uint256",
          "name": "",
          "type": "uint256"
        }
      ],
      "name": "backersOf",
      "outputs": [
        {
          "internalType": "address",
          "name": "owner",
          "type": "address"
        },
        {
          "internalType": "uint256",
          "name": "contribution",
          "type": "uint256"
        },
        {
          "internalType": "uint256",
          "name": "timestamp",
          "type": "uint256"
        },
        {
          "internalType": "bool",
          "name": "refunded",
          "type": "bool"
        }
      ],
      "stateMutability": "view",
      "type": "function"
    },
    {
      "inputs": [],
      "name": "balance",
      "outputs": [
        {
          "internalType": "uint256",
          "name": "",
          "type": "uint256"
        }
      ],
      "stateMutability": "view",
      "type": "function"
    },
    {
      "inputs": [
        {
          "internalType": "uint256",
          "name": "_taxPercentage",
          "type": "uint256"
        }
      ],
      "name": "changeTax",
      "outputs": [],
      "stateMutability": "nonpayable",
      "type": "function"
    },
    {
      "inputs": [
        {
          "internalType": "string",
          "name": "_title",
          "type": "string"
        },
        {
          "internalType": "string",
          "name": "_description",
          "type": "string"
        },
        {
          "internalType": "string",
          "name": "_imageURL",
          "type": "string"
        },
        {
          "internalType": "uint256",
          "name": "_cost",
          "type": "uint256"
        },
        {
          "internalType": "uint256",
          "name": "_expiresAt",
          "type": "uint256"
        }
      ],
      "name": "createProject",
      "outputs": [
        {
          "internalType": "bool",
          "name": "",
          "type": "bool"
        }
      ],
      "stateMutability": "nonpayable",
      "type": "function"
    },
    {
      "inputs": [
        {
          "internalType": "uint256",
          "name": "_id",
          "type": "uint256"
        }
      ],
      "name": "deleteProject",
      "outputs": [
        {
          "internalType": "bool",
          "name": "",
          "type": "bool"
        }
      ],
      "stateMutability": "nonpayable",
      "type": "function"
    },
    {
      "inputs": [
        {
          "internalType": "uint256",
          "name": "_id",
          "type": "uint256"
        }
      ],
      "name": "getBackers",
      "outputs": [
        {
          "components": [
            {
              "internalType": "address",
              "name": "owner",
              "type": "address"
            },
            {
              "internalType": "uint256",
              "name": "contribution",
              "type": "uint256"
            },
            {
              "internalType": "uint256",
              "name": "timestamp",
              "type": "uint256"
            },
            {
              "internalType": "bool",
              "name": "refunded",
              "type": "bool"
            }
          ],
          "internalType": "struct BoostMeUp.backerStruct[]",
          "name": "",
          "type": "tuple[]"
        }
      ],
      "stateMutability": "view",
      "type": "function"
    },
    {
      "inputs": [
        {
          "internalType": "uint256",
          "name": "_id",
          "type": "uint256"
        }
      ],
      "name": "getProject",
      "outputs": [
        {
          "components": [
            {
              "internalType": "uint256",
              "name": "id",
              "type": "uint256"
            },
            {
              "internalType": "address",
              "name": "owner",
              "type": "address"
            },
            {
              "internalType": "string",
              "name": "title",
              "type": "string"
            },
            {
              "internalType": "string",
              "name": "description",
              "type": "string"
            },
            {
              "internalType": "string",
              "name": "imageURL",
              "type": "string"
            },
            {
              "internalType": "uint256",
              "name": "cost",
              "type": "uint256"
            },
            {
              "internalType": "uint256",
              "name": "raised",
              "type": "uint256"
            },
            {
              "internalType": "uint256",
              "name": "timestamp",
              "type": "uint256"
            },
            {
              "internalType": "uint256",
              "name": "expiresAt",
              "type": "uint256"
            },
            {
              "internalType": "uint256",
              "name": "backers",
              "type": "uint256"
            },
            {
              "internalType": "enum BoostMeUp.statusEnum",
              "name": "status",
              "type": "uint8"
            }
          ],
          "internalType": "struct BoostMeUp.projectStruct",
          "name": "",
          "type": "tuple"
        }
      ],
      "stateMutability": "view",
      "type": "function"
    },
    {
      "inputs": [],
      "name": "getProjects",
      "outputs": [
        {
          "components": [
            {
              "internalType": "uint256",
              "name": "id",
              "type": "uint256"
            },
            {
              "internalType": "address",
              "name": "owner",
              "type": "address"
            },
            {
              "internalType": "string",
              "name": "title",
              "type": "string"
            },
            {
              "internalType": "string",
              "name": "description",
              "type": "string"
            },
            {
              "internalType": "string",
              "name": "imageURL",
              "type": "string"
            },
            {
              "internalType": "uint256",
              "name": "cost",
              "type": "uint256"
            },
            {
              "internalType": "uint256",
              "name": "raised",
              "type": "uint256"
            },
            {
              "internalType": "uint256",
              "name": "timestamp",
              "type": "uint256"
            },
            {
              "internalType": "uint256",
              "name": "expiresAt",
              "type": "uint256"
            },
            {
              "internalType": "uint256",
              "name": "backers",
              "type": "uint256"
            },
            {
              "internalType": "enum BoostMeUp.statusEnum",
              "name": "status",
              "type": "uint8"
            }
          ],
          "internalType": "struct BoostMeUp.projectStruct[]",
          "name": "",
          "type": "tuple[]"
        }
      ],
      "stateMutability": "view",
      "type": "function"
    },
    {
      "inputs": [],
      "name": "owner",
      "outputs": [
        {
          "internalType": "address",
          "name": "",
          "type": "address"
        }
      ],
      "stateMutability": "view",
      "type": "function"
    },
    {
      "inputs": [
        {
          "internalType": "uint256",
          "name": "_id",
          "type": "uint256"
        }
      ],
      "name": "payOutProject",
      "outputs": [
        {
          "internalType": "bool",
          "name": "",
          "type": "bool"
        }
      ],
      "stateMutability": "nonpayable",
      "type": "function"
    },
    {
      "inputs": [],
      "name": "projectCount",
      "outputs": [
        {
          "internalType": "uint256",
          "name": "",
          "type": "uint256"
        }
      ],
      "stateMutability": "view",
      "type": "function"
    },
    {
      "inputs": [
        {
          "internalType": "uint256",
          "name": "",
          "type": "uint256"
        }
      ],
      "name": "projectExist",
      "outputs": [
        {
          "internalType": "bool",
          "name": "",
          "type": "bool"
        }
      ],
      "stateMutability": "view",
      "type": "function"
    },
    {
      "inputs": [],
      "name": "projectTax",
      "outputs": [
        {
          "internalType": "uint256",
          "name": "",
          "type": "uint256"
        }
      ],
      "stateMutability": "view",
      "type": "function"
    },
    {
      "inputs": [
        {
          "internalType": "address",
          "name": "",
          "type": "address"
        },
        {
          "internalType": "uint256",
          "name": "",
          "type": "uint256"
        }
      ],
      "name": "projectsOf",
      "outputs": [
        {
          "internalType": "uint256",
          "name": "id",
          "type": "uint256"
        },
        {
          "internalType": "address",
          "name": "owner",
          "type": "address"
        },
        {
          "internalType": "string",
          "name": "title",
          "type": "string"
        },
        {
          "internalType": "string",
          "name": "description",
          "type": "string"
        },
        {
          "internalType": "string",
          "name": "imageURL",
          "type": "string"
        },
        {
          "internalType": "uint256",
          "name": "cost",
          "type": "uint256"
        },
        {
          "internalType": "uint256",
          "name": "raised",
          "type": "uint256"
        },
        {
          "internalType": "uint256",
          "name": "timestamp",
          "type": "uint256"
        },
        {
          "internalType": "uint256",
          "name": "expiresAt",
          "type": "uint256"
        },
        {
          "internalType": "uint256",
          "name": "backers",
          "type": "uint256"
        },
        {
          "internalType": "enum BoostMeUp.statusEnum",
          "name": "status",
          "type": "uint8"
        }
      ],
      "stateMutability": "view",
      "type": "function"
    },
    {
      "inputs": [
        {
          "internalType": "uint256",
          "name": "_id",
          "type": "uint256"
        }
      ],
      "name": "requestRefund",
      "outputs": [
        {
          "internalType": "bool",
          "name": "",
          "type": "bool"
        }
      ],
      "stateMutability": "nonpayable",
      "type": "function"
    },
    {
      "inputs": [],
      "name": "stats",
      "outputs": [
        {
          "internalType": "uint256",
          "name": "totalProjects",
          "type": "uint256"
        },
        {
          "internalType": "uint256",
          "name": "totalBacking",
          "type": "uint256"
        },
        {
          "internalType": "uint256",
          "name": "totalDonations",
          "type": "uint256"
        }
      ],
      "stateMutability": "view",
      "type": "function"
    },
    {
      "inputs": [
        {
          "internalType": "uint256",
          "name": "_id",
          "type": "uint256"
        },
        {
          "internalType": "string",
          "name": "_title",
          "type": "string"
        },
        {
          "internalType": "string",
          "name": "_description",
          "type": "string"
        },
        {
          "internalType": "string",
          "name": "_imageURL",
          "type": "string"
        },
        {
          "internalType": "uint256",
          "name": "_expiresAt",
          "type": "uint256"
        }
      ],
      "name": "updateProject",
      "outputs": [
        {
          "internalType": "bool",
          "name": "",
          "type": "bool"
        }
      ],
      "stateMutability": "nonpayable",
      "type": "function"
    }
  ],
  "bytecode": "0x608060405234801561001057600080fd5b50604051620027e4380380620027e48339810160408190526100319161004b565b600080546001600160a01b03191633179055600155610064565b60006020828403121561005d57600080fd5b5051919050565b61277080620000746000396000f3fe6080604052600436106101095760003560e01c8063a4b2409e11610095578063d24cd3ec11610064578063d24cd3ec146102fe578063d80528ae14610314578063dcc601281461034e578063f0f3f2c814610370578063f9285aa01461039d57600080fd5b8063a4b2409e1461027b578063b531dcba1461029b578063b69ef8a8146102bb578063c9168b72146102d157600080fd5b80638593054b116100dc5780638593054b146101a95780638da5cb5b146101d95780638e555632146102115780639a3fa8c7146102485780639f39a1941461026857600080fd5b8063056c29ee1461010e57806336fbad26146101435780633e45c8af146101675780634cd0cb2814610189575b600080fd5b34801561011a57600080fd5b5061012e610129366004612187565b6103e9565b60405190151581526020015b60405180910390f35b34801561014f57600080fd5b5061015960025481565b60405190815260200161013a565b34801561017357600080fd5b50610187610182366004612221565b610852565b005b34801561019557600080fd5b5061012e6101a4366004612221565b6108a7565b3480156101b557600080fd5b5061012e6101c4366004612221565b600a6020526000908152604090205460ff1681565b3480156101e557600080fd5b506000546101f9906001600160a01b031681565b6040516001600160a01b03909116815260200161013a565b34801561021d57600080fd5b5061023161022c36600461214f565b610a3e565b60405161013a9b9a99989796959493929190612568565b34801561025457600080fd5b5061012e61026336600461223a565b610c5a565b61012e610276366004612221565b610ed1565b34801561028757600080fd5b5061012e610296366004612221565b6112de565b3480156102a757600080fd5b5061012e6102b6366004612221565b6113d5565b3480156102c757600080fd5b5061015960035481565b3480156102dd57600080fd5b506102f16102ec366004612221565b6114c4565b60405161013a919061242a565b34801561030a57600080fd5b5061015960015481565b34801561032057600080fd5b5060045460055460065461033392919083565b6040805193845260208401929092529082015260600161013a565b34801561035a57600080fd5b50610363611566565b60405161013a9190612499565b34801561037c57600080fd5b5061039061038b366004612221565b611801565b60405161013a919061254e565b3480156103a957600080fd5b506103bd6103b83660046122d4565b611ae6565b604080516001600160a01b0390951685526020850193909352918301521515606082015260800161013a565b6000808651116104385760405162461bcd60e51b81526020600482015260156024820152745469746c652063616e6e6f7420626520656d70747960581b60448201526064015b60405180910390fd5b60008551116104895760405162461bcd60e51b815260206004820152601b60248201527f4465736372697074696f6e2063616e6e6f7420626520656d7074790000000000604482015260640161042f565b60008451116104d55760405162461bcd60e51b8152602060048201526018602482015277496d61676555524c2063616e6e6f7420626520656d70747960401b604482015260640161042f565b6000831161051b5760405162461bcd60e51b8152602060048201526013602482015272436f73742063616e6e6f74206265207a65726f60681b604482015260640161042f565b610523611fb6565b600254815233602080830191825260408301898152606084018990526080840188905260a084018790524260e085015261010084018690526007805460018101825560009190915284517fa66cc928b5edb82af9bd49922954155ab7b0942694bea4ce44661d9a8736c688600b90920291820190815593517fa66cc928b5edb82af9bd49922954155ab7b0942694bea4ce44661d9a8736c689820180546001600160a01b0319166001600160a01b0390921691909117905590518051859493610610937fa66cc928b5edb82af9bd49922954155ab7b0942694bea4ce44661d9a8736c68a01920190612029565b506060820151805161062c916003840191602090910190612029565b5060808201518051610648916004840191602090910190612029565b5060a0820151600582015560c0820151600682015560e0820151600782015561010082015160088201556101208201516009820155610140820151600a8201805460ff191660018360048111156106a1576106a16126d8565b021790555050600280546000908152600a602090815260408083208054600160ff1990911681179091553384526008835281842080548083018255908552938390208751600b909502019384558683015190840180546001600160a01b0319166001600160a01b039092169190911790558501518051869550929361072e93908501929190910190612029565b506060820151805161074a916003840191602090910190612029565b5060808201518051610766916004840191602090910190612029565b5060a0820151600582015560c0820151600682015560e0820151600782015561010082015160088201556101208201516009820155610140820151600a8201805460ff191660018360048111156107bf576107bf6126d8565b021790555050506001600460000160008282546107dc91906125fc565b909155505060028054339160008051602061271b83398151915291906000610803836126a7565b9091555060408051918252606060208301819052600f908301526e141493d29150d50810d49150551151608a1b6080830152429082015260a00160405180910390a25060019695505050505050565b6000546001600160a01b031633146108a25760405162461bcd60e51b81526020600482015260136024820152724f776e6572207265736572766564206f6e6c7960681b604482015260640161042f565b600155565b600080600783815481106108bd576108bd6126ee565b60009182526020909120600a600b90920201015460ff1660048111156108e5576108e56126d8565b1461092d5760405162461bcd60e51b8152602060048201526018602482015277141c9bda9958dd081b9bc81b1bdb99d95c881bdc195b995960421b604482015260640161042f565b60078281548110610940576109406126ee565b60009182526020909120600b90910201600101546001600160a01b0316331461097b5760405162461bcd60e51b815260040161042f906124fb565b600360078381548110610990576109906126ee565b60009182526020909120600a600b9092020101805460ff191660018360048111156109bd576109bd6126d8565b02179055506109cb82611b39565b6001600460000160008282546109e19190612655565b909155505060408051838152606060208201819052600f908201526e141493d29150d50811115311551151608a1b608082015242818301529051339160008051602061271b833981519152919081900360a00190a2506001919050565b60086020528160005260406000208181548110610a5a57600080fd5b60009182526020909120600b90910201805460018201546002830180549295506001600160a01b03909116935090610a919061266c565b80601f0160208091040260200160405190810160405280929190818152602001828054610abd9061266c565b8015610b0a5780601f10610adf57610100808354040283529160200191610b0a565b820191906000526020600020905b815481529060010190602001808311610aed57829003601f168201915b505050505090806003018054610b1f9061266c565b80601f0160208091040260200160405190810160405280929190818152602001828054610b4b9061266c565b8015610b985780601f10610b6d57610100808354040283529160200191610b98565b820191906000526020600020905b815481529060010190602001808311610b7b57829003601f168201915b505050505090806004018054610bad9061266c565b80601f0160208091040260200160405190810160405280929190818152602001828054610bd99061266c565b8015610c265780601f10610bfb57610100808354040283529160200191610c26565b820191906000526020600020905b815481529060010190602001808311610c0957829003601f168201915b50505060058401546006850154600786015460088701546009880154600a9098015496979396929550909350919060ff168b565b600060078681548110610c6f57610c6f6126ee565b60009182526020909120600b90910201600101546001600160a01b03163314610caa5760405162461bcd60e51b815260040161042f906124fb565b6000855111610cf35760405162461bcd60e51b81526020600482015260156024820152745469746c652063616e6e6f7420626520656d70747960581b604482015260640161042f565b6000845111610d445760405162461bcd60e51b815260206004820152601b60248201527f4465736372697074696f6e2063616e6e6f7420626520656d7074790000000000604482015260640161042f565b6000835111610d905760405162461bcd60e51b8152602060048201526018602482015277496d61676555524c2063616e6e6f7420626520656d70747960401b604482015260640161042f565b8460078781548110610da457610da46126ee565b90600052602060002090600b02016002019080519060200190610dc8929190612029565b508360078781548110610ddd57610ddd6126ee565b90600052602060002090600b02016003019080519060200190610e01929190612029565b508260078781548110610e1657610e166126ee565b90600052602060002090600b02016004019080519060200190610e3a929190612029565b508160078781548110610e4f57610e4f6126ee565b90600052602060002090600b020160080181905550336001600160a01b031660008051602061271b8339815191528742604051610ebd929190918252606060208301819052600f908301526e141493d29150d50815541110551151608a1b6080830152604082015260a00190565b60405180910390a250600195945050505050565b6000803411610f225760405162461bcd60e51b815260206004820152601c60248201527f4574686572206d7573742062652067726561746572207468616e203000000000604482015260640161042f565b6000828152600a602052604090205460ff16610f745760405162461bcd60e51b8152602060048201526011602482015270141c9bda9958dd08139bdd08119bdd5b99607a1b604482015260640161042f565b600060078381548110610f8957610f896126ee565b60009182526020909120600a600b90920201015460ff166004811115610fb157610fb16126d8565b14610ff95760405162461bcd60e51b8152602060048201526018602482015277141c9bda9958dd081b9bc81b1bdb99d95c881bdc195b995960421b604482015260640161042f565b60016004600101600082825461100f91906125fc565b9091555050600680543491906000906110299084906125fc565b925050819055503460078381548110611044576110446126ee565b90600052602060002090600b0201600601600082825461106491906125fc565b92505081905550600160078381548110611080576110806126ee565b90600052602060002090600b020160090160008282546110a091906125fc565b9091555050600082815260096020908152604080832081516080808201845233808352348387019081524284870181815260608087018b8152885460018082018b55998d529b8b902097516004909c0290970180546001600160a01b0319166001600160a01b03909c169b909b178b559251968a01969096559451600289015592516003909701805460ff1916971515979097179096558351888152948501829052600e918501919091526d141493d29150d508109050d2d15160921b908401529082015260008051602061271b8339815191529060a00160405180910390a260078281548110611193576111936126ee565b90600052602060002090600b020160050154600783815481106111b8576111b86126ee565b90600052602060002090600b02016006015410611263576001600783815481106111e4576111e46126ee565b60009182526020909120600a600b9092020101805460ff19166001836004811115611211576112116126d8565b021790555060078281548110611229576112296126ee565b90600052602060002090600b0201600601546003600082825461124c91906125fc565b9091555061125b905082611cfe565b506001919050565b60078281548110611276576112766126ee565b90600052602060002090600b020160080154421061125b576002600783815481106112a3576112a36126ee565b60009182526020909120600a600b9092020101805460ff191660018360048111156112d0576112d06126d8565b021790555061125b82611b39565b60006002600783815481106112f5576112f56126ee565b60009182526020909120600a600b90920201015460ff16600481111561131d5761131d6126d8565b141580611365575060036007838154811061133a5761133a6126ee565b60009182526020909120600a600b90920201015460ff166004811115611362576113626126d8565b14155b6113c05760405162461bcd60e51b815260206004820152602660248201527f50726f6a656374206973205265766572746564206f722044656c6574656420616044820152656c726561647960d01b606482015260840161042f565b6002600783815481106112a3576112a36126ee565b60006001600783815481106113ec576113ec6126ee565b60009182526020909120600a600b90920201015460ff166004811115611414576114146126d8565b146114585760405162461bcd60e51b8152602060048201526014602482015273141c9bda9958dd081b9bdd08105c1c1c9bdd995960621b604482015260640161042f565b6007828154811061146b5761146b6126ee565b60009182526020909120600b90910201600101546001600160a01b031633148061149f57506000546001600160a01b031633145b6114bb5760405162461bcd60e51b815260040161042f906124fb565b61125b82611cfe565b606060096000838152602001908152602001600020805480602002602001604051908101604052809291908181526020016000905b8282101561155b576000848152602090819020604080516080810182526004860290920180546001600160a01b03168352600180820154848601526002820154928401929092526003015460ff161515606083015290835290920191016114f9565b505050509050919050565b60606007805480602002602001604051908101604052809291908181526020016000905b828210156117f85760008481526020908190206040805161016081018252600b86029092018054835260018101546001600160a01b031693830193909352600283018054929392918401916115de9061266c565b80601f016020809104026020016040519081016040528092919081815260200182805461160a9061266c565b80156116575780601f1061162c57610100808354040283529160200191611657565b820191906000526020600020905b81548152906001019060200180831161163a57829003601f168201915b505050505081526020016003820180546116709061266c565b80601f016020809104026020016040519081016040528092919081815260200182805461169c9061266c565b80156116e95780601f106116be576101008083540402835291602001916116e9565b820191906000526020600020905b8154815290600101906020018083116116cc57829003601f168201915b505050505081526020016004820180546117029061266c565b80601f016020809104026020016040519081016040528092919081815260200182805461172e9061266c565b801561177b5780601f106117505761010080835404028352916020019161177b565b820191906000526020600020905b81548152906001019060200180831161175e57829003601f168201915b505050918352505060058201546020820152600682015460408201526007820154606082015260088201546080820152600982015460a0820152600a82015460c09091019060ff1660048111156117d4576117d46126d8565b60048111156117e5576117e56126d8565b815250508152602001906001019061158a565b50505050905090565b611809611fb6565b6000828152600a602052604090205460ff166118605760405162461bcd60e51b815260206004820152601660248201527550726f6a65637420646f65736e27742065786973747360501b604482015260640161042f565b60078281548110611873576118736126ee565b90600052602060002090600b020160405180610160016040529081600082015481526020016001820160009054906101000a90046001600160a01b03166001600160a01b03166001600160a01b031681526020016002820180546118d69061266c565b80601f01602080910402602001604051908101604052809291908181526020018280546119029061266c565b801561194f5780601f106119245761010080835404028352916020019161194f565b820191906000526020600020905b81548152906001019060200180831161193257829003601f168201915b505050505081526020016003820180546119689061266c565b80601f01602080910402602001604051908101604052809291908181526020018280546119949061266c565b80156119e15780601f106119b6576101008083540402835291602001916119e1565b820191906000526020600020905b8154815290600101906020018083116119c457829003601f168201915b505050505081526020016004820180546119fa9061266c565b80601f0160208091040260200160405190810160405280929190818152602001828054611a269061266c565b8015611a735780601f10611a4857610100808354040283529160200191611a73565b820191906000526020600020905b815481529060010190602001808311611a5657829003601f168201915b505050918352505060058201546020820152600682015460408201526007820154606082015260088201546080820152600982015460a0820152600a82015460c09091019060ff166004811115611acc57611acc6126d8565b6004811115611add57611add6126d8565b90525092915050565b60096020528160005260406000208181548110611b0257600080fd5b600091825260209091206004909102018054600182015460028301546003909301546001600160a01b039092169450925060ff1684565b60005b600082815260096020526040902054811015611cfa576000828152600960205260408120805483908110611b7257611b726126ee565b6000918252602080832060049092029091015485835260099091526040822080546001600160a01b0390921693509084908110611bb157611bb16126ee565b90600052602060002090600402016001015490506001600960008681526020019081526020016000208481548110611beb57611beb6126ee565b906000526020600020906004020160030160006101000a81548160ff02191690831515021790555042600960008681526020019081526020016000208481548110611c3857611c386126ee565b9060005260206000209060040201600201819055506000826001600160a01b03168260405160006040518083038185875af1925050503d8060008114611c9a576040519150601f19603f3d011682016040523d82523d6000602084013e611c9f565b606091505b5050905080611cad57600080fd5b600160046001016000828254611cc39190612655565b909155505060068054839190600090611cdd908490612655565b925050819055505050508080611cf2906126a7565b915050611b3c565b5050565b600060078281548110611d1357611d136126ee565b90600052602060002090600b02016006015490506000606460015483611d399190612636565b611d439190612614565b9050600460078481548110611d5a57611d5a6126ee565b60009182526020909120600a600b9092020101805460ff19166001836004811115611d8757611d876126d8565b0217905550600060078481548110611da157611da16126ee565b600091825260209091206001600b9092020101546001600160a01b0316611dc88385612655565b604051600081818185875af1925050503d8060008114611e04576040519150601f19603f3d011682016040523d82523d6000602084013e611e09565b606091505b5050905080611e6c5760405162461bcd60e51b815260206004820152602960248201527f4661696c656420746f207472616e736665722066756e647320746f2070726f6a60448201526832b1ba1037bbb732b960b91b606482015260840161042f565b600080546040516001600160a01b039091169184919081818185875af1925050503d8060008114611eb9576040519150601f19603f3d011682016040523d82523d6000602084013e611ebe565b606091505b50508091505080611f245760405162461bcd60e51b815260206004820152602a60248201527f4661696c656420746f207472616e736665722066756e647320746f20636f6e746044820152693930b1ba1037bbb732b960b11b606482015260840161042f565b60078481548110611f3757611f376126ee565b90600052602060002090600b02016006015460036000828254611f5a9190612655565b9091555050604080518581526060602082018190526010908201526f141493d29150d508141052510813d55560821b608082015242818301529051339160008051602061271b833981519152919081900360a00190a250505050565b6040518061016001604052806000815260200160006001600160a01b03168152602001606081526020016060815260200160608152602001600081526020016000815260200160008152602001600081526020016000815260200160006004811115612024576120246126d8565b905290565b8280546120359061266c565b90600052602060002090601f016020900481019282612057576000855561209d565b82601f1061207057805160ff191683800117855561209d565b8280016001018555821561209d579182015b8281111561209d578251825591602001919060010190612082565b506120a99291506120ad565b5090565b5b808211156120a957600081556001016120ae565b600082601f8301126120d357600080fd5b813567ffffffffffffffff808211156120ee576120ee612704565b604051601f8301601f19908116603f0116810190828211818310171561211657612116612704565b8160405283815286602085880101111561212f57600080fd5b836020870160208301376000602085830101528094505050505092915050565b6000806040838503121561216257600080fd5b82356001600160a01b038116811461217957600080fd5b946020939093013593505050565b600080600080600060a0868803121561219f57600080fd5b853567ffffffffffffffff808211156121b757600080fd5b6121c389838a016120c2565b965060208801359150808211156121d957600080fd5b6121e589838a016120c2565b955060408801359150808211156121fb57600080fd5b50612208888289016120c2565b9598949750949560608101359550608001359392505050565b60006020828403121561223357600080fd5b5035919050565b600080600080600060a0868803121561225257600080fd5b85359450602086013567ffffffffffffffff8082111561227157600080fd5b61227d89838a016120c2565b9550604088013591508082111561229357600080fd5b61229f89838a016120c2565b945060608801359150808211156122b557600080fd5b506122c2888289016120c2565b95989497509295608001359392505050565b600080604083850312156122e757600080fd5b50508035926020909101359150565b6005811061231457634e487b7160e01b600052602160045260246000fd5b9052565b6000815180845260005b8181101561233e57602081850181015186830182015201612322565b81811115612350576000602083870101525b50601f01601f19169290920160200192915050565b600061016082518452602083015161238860208601826001600160a01b03169052565b5060408301518160408601526123a082860182612318565b915050606083015184820360608601526123ba8282612318565b915050608083015184820360808601526123d48282612318565b91505060a083015160a085015260c083015160c085015260e083015160e085015261010080840151818601525061012080840151818601525061014080840151612420828701826122f6565b5090949350505050565b602080825282518282018190526000919060409081850190868401855b8281101561248c57815180516001600160a01b031685528681015187860152858101518686015260609081015115159085015260809093019290850190600101612447565b5091979650505050505050565b6000602080830181845280855180835260408601915060408160051b870101925083870160005b828110156124ee57603f198886030184526124dc858351612365565b945092850192908501906001016124c0565b5092979650505050505050565b60208082526033908201527f556e617574686f72697a65643a20596f7520617265206e6f7420746865206f776040820152721b995c881bd9881d1a1a5cc81c1c9bda9958dd606a1b606082015260800190565b6020815260006125616020830184612365565b9392505050565b8b81526001600160a01b038b166020820152610160604082018190526000906125938382018d612318565b905082810360608401526125a7818c612318565b905082810360808401526125bb818b612318565b9150508760a08301528660c08301528560e083015284610100830152836101208301526125ec6101408301846122f6565b9c9b505050505050505050505050565b6000821982111561260f5761260f6126c2565b500190565b60008261263157634e487b7160e01b600052601260045260246000fd5b500490565b6000816000190483118215151615612650576126506126c2565b500290565b600082821015612667576126676126c2565b500390565b600181811c9082168061268057607f821691505b602082108114156126a157634e487b7160e01b600052602260045260246000fd5b50919050565b60006000198214156126bb576126bb6126c2565b5060010190565b634e487b7160e01b600052601160045260246000fd5b634e487b7160e01b600052602160045260246000fd5b634e487b7160e01b600052603260045260246000fd5b634e487b7160e01b600052604160045260246000fdfeaee8e5d3bbb2f71a951b5632cee20f7ac487b9f8ab4f66a236f7694b13af7c6aa2646970667358221220468d6dff78a4a74e6e500ae1fe2bc4c2229a9067c780d2ffd468840d2acf1c6464736f6c63430008070033",
  "linkReferences": {},
  "deployedLinkReferences": {}
}